{
  "_format": "hh-sol-artifact-1",
  "contractName": "NFTMARKETPLACE",
  "sourceName": "contracts/NFTMARKETPLACE.sol",
  "abi": [
    {
      "inputs": [],
      "stateMutability": "nonpayable",
      "type": "constructor"
    },
    {
      "anonymous": false,
      "inputs": [
        {
          "indexed": true,
          "internalType": "address",
          "name": "owner",
          "type": "address"
        },
        {
          "indexed": true,
          "internalType": "address",
          "name": "approved",
          "type": "address"
        },
        {
          "indexed": true,
          "internalType": "uint256",
          "name": "tokenId",
          "type": "uint256"
        }
      ],
      "name": "Approval",
      "type": "event"
    },
    {
      "anonymous": false,
      "inputs": [
        {
          "indexed": true,
          "internalType": "address",
          "name": "owner",
          "type": "address"
        },
        {
          "indexed": true,
          "internalType": "address",
          "name": "operator",
          "type": "address"
        },
        {
          "indexed": false,
          "internalType": "bool",
          "name": "approved",
          "type": "bool"
        }
      ],
      "name": "ApprovalForAll",
      "type": "event"
    },
    {
      "anonymous": false,
      "inputs": [
        {
          "indexed": true,
          "internalType": "uint256",
          "name": "tokenId",
          "type": "uint256"
        },
        {
          "indexed": false,
          "internalType": "address",
          "name": "seller",
          "type": "address"
        },
        {
          "indexed": false,
          "internalType": "address",
          "name": "owner",
          "type": "address"
        },
        {
          "indexed": false,
          "internalType": "uint256",
          "name": "price",
          "type": "uint256"
        },
        {
          "indexed": false,
          "internalType": "bool",
          "name": "sold",
          "type": "bool"
        }
      ],
      "name": "MarketItemCreated",
      "type": "event"
    },
    {
      "anonymous": false,
      "inputs": [
        {
          "indexed": true,
          "internalType": "address",
          "name": "from",
          "type": "address"
        },
        {
          "indexed": true,
          "internalType": "address",
          "name": "to",
          "type": "address"
        },
        {
          "indexed": true,
          "internalType": "uint256",
          "name": "tokenId",
          "type": "uint256"
        }
      ],
      "name": "Transfer",
      "type": "event"
    },
    {
      "inputs": [
        {
          "internalType": "address",
          "name": "to",
          "type": "address"
        },
        {
          "internalType": "uint256",
          "name": "tokenId",
          "type": "uint256"
        }
      ],
      "name": "approve",
      "outputs": [],
      "stateMutability": "nonpayable",
      "type": "function"
    },
    {
      "inputs": [
        {
          "internalType": "address",
          "name": "owner",
          "type": "address"
        }
      ],
      "name": "balanceOf",
      "outputs": [
        {
          "internalType": "uint256",
          "name": "",
          "type": "uint256"
        }
      ],
      "stateMutability": "view",
      "type": "function"
    },
    {
      "inputs": [
        {
          "internalType": "uint256",
          "name": "tokenId",
          "type": "uint256"
        }
      ],
      "name": "cancelNFTsell",
      "outputs": [],
      "stateMutability": "nonpayable",
      "type": "function"
    },
    {
      "inputs": [
        {
          "internalType": "uint256",
          "name": "tokenId",
          "type": "uint256"
        }
      ],
      "name": "createMarketSale",
      "outputs": [],
      "stateMutability": "payable",
      "type": "function"
    },
    {
      "inputs": [
        {
          "internalType": "string",
          "name": "tokenURI",
          "type": "string"
        },
        {
          "internalType": "uint256",
          "name": "price",
          "type": "uint256"
        }
      ],
      "name": "createToken",
      "outputs": [
        {
          "internalType": "uint256",
          "name": "",
          "type": "uint256"
        }
      ],
      "stateMutability": "payable",
      "type": "function"
    },
    {
      "inputs": [],
      "name": "fetchItemListed",
      "outputs": [
        {
          "components": [
            {
              "internalType": "uint256",
              "name": "tokenId",
              "type": "uint256"
            },
            {
              "internalType": "address payable",
              "name": "seller",
              "type": "address"
            },
            {
              "internalType": "address payable",
              "name": "owner",
              "type": "address"
            },
            {
              "internalType": "uint256",
              "name": "price",
              "type": "uint256"
            },
            {
              "internalType": "bool",
              "name": "sold",
              "type": "bool"
            }
          ],
          "internalType": "struct NFTMARKETPLACE.MarketItem[]",
          "name": "",
          "type": "tuple[]"
        }
      ],
      "stateMutability": "view",
      "type": "function"
    },
    {
      "inputs": [],
      "name": "fetchMarketItem",
      "outputs": [
        {
          "components": [
            {
              "internalType": "uint256",
              "name": "tokenId",
              "type": "uint256"
            },
            {
              "internalType": "address payable",
              "name": "seller",
              "type": "address"
            },
            {
              "internalType": "address payable",
              "name": "owner",
              "type": "address"
            },
            {
              "internalType": "uint256",
              "name": "price",
              "type": "uint256"
            },
            {
              "internalType": "bool",
              "name": "sold",
              "type": "bool"
            }
          ],
          "internalType": "struct NFTMARKETPLACE.MarketItem[]",
          "name": "",
          "type": "tuple[]"
        }
      ],
      "stateMutability": "view",
      "type": "function"
    },
    {
      "inputs": [],
      "name": "fetchMyNFT",
      "outputs": [
        {
          "components": [
            {
              "internalType": "uint256",
              "name": "tokenId",
              "type": "uint256"
            },
            {
              "internalType": "address payable",
              "name": "seller",
              "type": "address"
            },
            {
              "internalType": "address payable",
              "name": "owner",
              "type": "address"
            },
            {
              "internalType": "uint256",
              "name": "price",
              "type": "uint256"
            },
            {
              "internalType": "bool",
              "name": "sold",
              "type": "bool"
            }
          ],
          "internalType": "struct NFTMARKETPLACE.MarketItem[]",
          "name": "",
          "type": "tuple[]"
        }
      ],
      "stateMutability": "view",
      "type": "function"
    },
    {
      "inputs": [
        {
          "internalType": "uint256",
          "name": "tokenId",
          "type": "uint256"
        }
      ],
      "name": "getApproved",
      "outputs": [
        {
          "internalType": "address",
          "name": "",
          "type": "address"
        }
      ],
      "stateMutability": "view",
      "type": "function"
    },
    {
      "inputs": [],
      "name": "getListingPrice",
      "outputs": [
        {
          "internalType": "uint256",
          "name": "",
          "type": "uint256"
        }
      ],
      "stateMutability": "view",
      "type": "function"
    },
    {
      "inputs": [
        {
          "internalType": "address",
          "name": "owner",
          "type": "address"
        },
        {
          "internalType": "address",
          "name": "operator",
          "type": "address"
        }
      ],
      "name": "isApprovedForAll",
      "outputs": [
        {
          "internalType": "bool",
          "name": "",
          "type": "bool"
        }
      ],
      "stateMutability": "view",
      "type": "function"
    },
    {
      "inputs": [],
      "name": "name",
      "outputs": [
        {
          "internalType": "string",
          "name": "",
          "type": "string"
        }
      ],
      "stateMutability": "view",
      "type": "function"
    },
    {
      "inputs": [
        {
          "internalType": "uint256",
          "name": "tokenId",
          "type": "uint256"
        }
      ],
      "name": "ownerOf",
      "outputs": [
        {
          "internalType": "address",
          "name": "",
          "type": "address"
        }
      ],
      "stateMutability": "view",
      "type": "function"
    },
    {
      "inputs": [
        {
          "internalType": "uint256",
          "name": "tokenId",
          "type": "uint256"
        },
        {
          "internalType": "uint256",
          "name": "price",
          "type": "uint256"
        }
      ],
      "name": "resellToken",
      "outputs": [],
      "stateMutability": "payable",
      "type": "function"
    },
    {
      "inputs": [
        {
          "internalType": "address",
          "name": "from",
          "type": "address"
        },
        {
          "internalType": "address",
          "name": "to",
          "type": "address"
        },
        {
          "internalType": "uint256",
          "name": "tokenId",
          "type": "uint256"
        }
      ],
      "name": "safeTransferFrom",
      "outputs": [],
      "stateMutability": "nonpayable",
      "type": "function"
    },
    {
      "inputs": [
        {
          "internalType": "address",
          "name": "from",
          "type": "address"
        },
        {
          "internalType": "address",
          "name": "to",
          "type": "address"
        },
        {
          "internalType": "uint256",
          "name": "tokenId",
          "type": "uint256"
        },
        {
          "internalType": "bytes",
          "name": "data",
          "type": "bytes"
        }
      ],
      "name": "safeTransferFrom",
      "outputs": [],
      "stateMutability": "nonpayable",
      "type": "function"
    },
    {
      "inputs": [
        {
          "internalType": "address",
          "name": "operator",
          "type": "address"
        },
        {
          "internalType": "bool",
          "name": "approved",
          "type": "bool"
        }
      ],
      "name": "setApprovalForAll",
      "outputs": [],
      "stateMutability": "nonpayable",
      "type": "function"
    },
    {
      "inputs": [
        {
          "internalType": "bytes4",
          "name": "interfaceId",
          "type": "bytes4"
        }
      ],
      "name": "supportsInterface",
      "outputs": [
        {
          "internalType": "bool",
          "name": "",
          "type": "bool"
        }
      ],
      "stateMutability": "view",
      "type": "function"
    },
    {
      "inputs": [],
      "name": "symbol",
      "outputs": [
        {
          "internalType": "string",
          "name": "",
          "type": "string"
        }
      ],
      "stateMutability": "view",
      "type": "function"
    },
    {
      "inputs": [
        {
          "internalType": "uint256",
          "name": "tokenId",
          "type": "uint256"
        }
      ],
      "name": "tokenURI",
      "outputs": [
        {
          "internalType": "string",
          "name": "",
          "type": "string"
        }
      ],
      "stateMutability": "view",
      "type": "function"
    },
    {
      "inputs": [
        {
          "internalType": "address",
          "name": "from",
          "type": "address"
        },
        {
          "internalType": "address",
          "name": "to",
          "type": "address"
        },
        {
          "internalType": "uint256",
          "name": "tokenId",
          "type": "uint256"
        }
      ],
      "name": "transferFrom",
      "outputs": [],
      "stateMutability": "nonpayable",
      "type": "function"
    },
    {
      "inputs": [
        {
          "internalType": "uint256",
          "name": "_listingPrice",
          "type": "uint256"
        }
      ],
      "name": "updatePrice",
      "outputs": [],
      "stateMutability": "payable",
      "type": "function"
    }
  ],
  "bytecode": "0x60806040526608e1bc9bf040006009553480156200001c57600080fd5b506040518060400160405280600f81526020017f4d455441564552534520544f4b454e00000000000000000000000000000000008152506040518060400160405280600481526020017f4d455441000000000000000000000000000000000000000000000000000000008152508160009080519060200190620000a192919062000104565b508060019080519060200190620000ba92919062000104565b50505033600a60006101000a81548173ffffffffffffffffffffffffffffffffffffffff021916908373ffffffffffffffffffffffffffffffffffffffff16021790555062000219565b8280546200011290620001e3565b90600052602060002090601f01602090048101928262000136576000855562000182565b82601f106200015157805160ff191683800117855562000182565b8280016001018555821562000182579182015b828111156200018157825182559160200191906001019062000164565b5b50905062000191919062000195565b5090565b5b80821115620001b057600081600090555060010162000196565b5090565b7f4e487b7100000000000000000000000000000000000000000000000000000000600052602260045260246000fd5b60006002820490506001821680620001fc57607f821691505b60208210811415620002135762000212620001b4565b5b50919050565b61438780620002296000396000f3fe6080604052600436106101355760003560e01c80638fafd021116100ab578063be9af5361161006f578063be9af5361461041c578063c18763f714610438578063c87b56dd14610463578063e1791445146104a0578063e219fc75146104cb578063e985e9c5146104e757610135565b80638fafd0211461034b57806395d89b4114610376578063979524b9146103a1578063a22cb465146103ca578063b88d4fde146103f357610135565b806323b872dd116100fd57806323b872dd1461023357806342842e0e1461025c5780636352211e1461028557806370a08231146102c257806372b3b620146102ff5780638d6cc56d1461032f57610135565b806301ffc9a71461013a57806306fdde0314610177578063081812fc146101a2578063095ea7b3146101df57806312e8558514610208575b600080fd5b34801561014657600080fd5b50610161600480360381019061015c9190612cd0565b610524565b60405161016e9190612d18565b60405180910390f35b34801561018357600080fd5b5061018c610606565b6040516101999190612dcc565b60405180910390f35b3480156101ae57600080fd5b506101c960048036038101906101c49190612e24565b610698565b6040516101d69190612e92565b60405180910390f35b3480156101eb57600080fd5b5061020660048036038101906102019190612ed9565b6106de565b005b34801561021457600080fd5b5061021d6107f6565b60405161022a9190612f28565b60405180910390f35b34801561023f57600080fd5b5061025a60048036038101906102559190612f43565b610800565b005b34801561026857600080fd5b50610283600480360381019061027e9190612f43565b610860565b005b34801561029157600080fd5b506102ac60048036038101906102a79190612e24565b610880565b6040516102b99190612e92565b60405180910390f35b3480156102ce57600080fd5b506102e960048036038101906102e49190612f96565b610932565b6040516102f69190612f28565b60405180910390f35b610319600480360381019061031491906130f8565b6109ea565b6040516103269190612f28565b60405180910390f35b61034960048036038101906103449190612e24565b610a2c565b005b34801561035757600080fd5b50610360610ac6565b60405161036d91906132aa565b60405180910390f35b34801561038257600080fd5b5061038b610d29565b6040516103989190612dcc565b60405180910390f35b3480156103ad57600080fd5b506103c860048036038101906103c39190612e24565b610dbb565b005b3480156103d657600080fd5b506103f160048036038101906103ec91906132f8565b611026565b005b3480156103ff57600080fd5b5061041a600480360381019061041591906133d9565b61103c565b005b61043660048036038101906104319190612e24565b61109e565b005b34801561044457600080fd5b5061044d6112dc565b60405161045a91906132aa565b60405180910390f35b34801561046f57600080fd5b5061048a60048036038101906104859190612e24565b6115c4565b6040516104979190612dcc565b60405180910390f35b3480156104ac57600080fd5b506104b56116d7565b6040516104c291906132aa565b60405180910390f35b6104e560048036038101906104e0919061345c565b6119bf565b005b3480156104f357600080fd5b5061050e6004803603810190610509919061349c565b611bb4565b60405161051b9190612d18565b60405180910390f35b60007f80ac58cd000000000000000000000000000000000000000000000000000000007bffffffffffffffffffffffffffffffffffffffffffffffffffffffff1916827bffffffffffffffffffffffffffffffffffffffffffffffffffffffff191614806105ef57507f5b5e139f000000000000000000000000000000000000000000000000000000007bffffffffffffffffffffffffffffffffffffffffffffffffffffffff1916827bffffffffffffffffffffffffffffffffffffffffffffffffffffffff1916145b806105ff57506105fe82611c48565b5b9050919050565b6060600080546106159061350b565b80601f01602080910402602001604051908101604052809291908181526020018280546106419061350b565b801561068e5780601f106106635761010080835404028352916020019161068e565b820191906000526020600020905b81548152906001019060200180831161067157829003601f168201915b5050505050905090565b60006106a382611cb2565b6004600083815260200190815260200160002060009054906101000a900473ffffffffffffffffffffffffffffffffffffffff169050919050565b60006106e982610880565b90508073ffffffffffffffffffffffffffffffffffffffff168373ffffffffffffffffffffffffffffffffffffffff16141561075a576040517f08c379a0000000000000000000000000000000000000000000000000000000008152600401610751906135af565b60405180910390fd5b8073ffffffffffffffffffffffffffffffffffffffff16610779611cfd565b73ffffffffffffffffffffffffffffffffffffffff1614806107a857506107a7816107a2611cfd565b611bb4565b5b6107e7576040517f08c379a00000000000000000000000000000000000000000000000000000000081526004016107de90613641565b60405180910390fd5b6107f18383611d05565b505050565b6000600954905090565b61081161080b611cfd565b82611dbe565b610850576040517f08c379a0000000000000000000000000000000000000000000000000000000008152600401610847906136d3565b60405180910390fd5b61085b838383611e53565b505050565b61087b8383836040518060200160405280600081525061103c565b505050565b6000806002600084815260200190815260200160002060009054906101000a900473ffffffffffffffffffffffffffffffffffffffff169050600073ffffffffffffffffffffffffffffffffffffffff168173ffffffffffffffffffffffffffffffffffffffff161415610929576040517f08c379a00000000000000000000000000000000000000000000000000000000081526004016109209061373f565b60405180910390fd5b80915050919050565b60008073ffffffffffffffffffffffffffffffffffffffff168273ffffffffffffffffffffffffffffffffffffffff1614156109a3576040517f08c379a000000000000000000000000000000000000000000000000000000000815260040161099a906137d1565b60405180910390fd5b600360008373ffffffffffffffffffffffffffffffffffffffff1673ffffffffffffffffffffffffffffffffffffffff168152602001908152602001600020549050919050565b60006109f660076120ba565b6000610a0260076120d0565b9050610a0e33826120de565b610a1881856122b8565b610a22818461232c565b8091505092915050565b3373ffffffffffffffffffffffffffffffffffffffff16600a60009054906101000a900473ffffffffffffffffffffffffffffffffffffffff1673ffffffffffffffffffffffffffffffffffffffff1614610abc576040517f08c379a0000000000000000000000000000000000000000000000000000000008152600401610ab390613863565b60405180910390fd5b8060098190555050565b60606000610ad460076120d0565b90506000610ae260086120d0565b610aec60076120d0565b610af691906138b2565b90506000808267ffffffffffffffff811115610b1557610b14612fcd565b5b604051908082528060200260200182016040528015610b4e57816020015b610b3b612b64565b815260200190600190039081610b335790505b50905060005b84811015610d1e573073ffffffffffffffffffffffffffffffffffffffff16600b6000600184610b8491906138e6565b815260200190815260200160002060020160009054906101000a900473ffffffffffffffffffffffffffffffffffffffff1673ffffffffffffffffffffffffffffffffffffffff161415610d0b576000600b6000600184610be591906138e6565b81526020019081526020016000209050806040518060a0016040529081600082015481526020016001820160009054906101000a900473ffffffffffffffffffffffffffffffffffffffff1673ffffffffffffffffffffffffffffffffffffffff1673ffffffffffffffffffffffffffffffffffffffff1681526020016002820160009054906101000a900473ffffffffffffffffffffffffffffffffffffffff1673ffffffffffffffffffffffffffffffffffffffff1673ffffffffffffffffffffffffffffffffffffffff168152602001600382015481526020016004820160009054906101000a900460ff161515151581525050838581518110610cef57610cee61393c565b5b6020026020010181905250600184610d0791906138e6565b9350505b8080610d169061396b565b915050610b54565b508094505050505090565b606060018054610d389061350b565b80601f0160208091040260200160405190810160405280929190818152602001828054610d649061350b565b8015610db15780601f10610d8657610100808354040283529160200191610db1565b820191906000526020600020905b815481529060010190602001808311610d9457829003601f168201915b5050505050905090565b3373ffffffffffffffffffffffffffffffffffffffff16600b600083815260200190815260200160002060010160009054906101000a900473ffffffffffffffffffffffffffffffffffffffff1673ffffffffffffffffffffffffffffffffffffffff1614610e5f576040517f08c379a0000000000000000000000000000000000000000000000000000000008152600401610e5690613a00565b60405180910390fd5b60001515600b600083815260200190815260200160002060040160009054906101000a900460ff16151514610ec9576040517f08c379a0000000000000000000000000000000000000000000000000000000008152600401610ec090613a92565b60405180910390fd5b33600b600083815260200190815260200160002060020160006101000a81548173ffffffffffffffffffffffffffffffffffffffff021916908373ffffffffffffffffffffffffffffffffffffffff1602179055506001600b600083815260200190815260200160002060040160006101000a81548160ff0219169083151502179055506000600b600083815260200190815260200160002060010160006101000a81548173ffffffffffffffffffffffffffffffffffffffff021916908373ffffffffffffffffffffffffffffffffffffffff160217905550610fad60086120ba565b610fb8303383611e53565b600a60009054906101000a900473ffffffffffffffffffffffffffffffffffffffff1673ffffffffffffffffffffffffffffffffffffffff166108fc6009549081150290604051600060405180830381858888f19350505050158015611022573d6000803e3d6000fd5b5050565b611038611031611cfd565b838361252f565b5050565b61104d611047611cfd565b83611dbe565b61108c576040517f08c379a0000000000000000000000000000000000000000000000000000000008152600401611083906136d3565b60405180910390fd5b6110988484848461269c565b50505050565b6000600b60008381526020019081526020016000206003015490506000600b600084815260200190815260200160002060010160009054906101000a900473ffffffffffffffffffffffffffffffffffffffff169050813414611136576040517f08c379a000000000000000000000000000000000000000000000000000000000815260040161112d90613b24565b60405180910390fd5b33600b600085815260200190815260200160002060020160006101000a81548173ffffffffffffffffffffffffffffffffffffffff021916908373ffffffffffffffffffffffffffffffffffffffff1602179055506001600b600085815260200190815260200160002060040160006101000a81548160ff0219169083151502179055506000600b600085815260200190815260200160002060010160006101000a81548173ffffffffffffffffffffffffffffffffffffffff021916908373ffffffffffffffffffffffffffffffffffffffff16021790555061121a60086120ba565b611225303385611e53565b600a60009054906101000a900473ffffffffffffffffffffffffffffffffffffffff1673ffffffffffffffffffffffffffffffffffffffff166108fc6009549081150290604051600060405180830381858888f1935050505015801561128f573d6000803e3d6000fd5b508073ffffffffffffffffffffffffffffffffffffffff166108fc839081150290604051600060405180830381858888f193505050501580156112d6573d6000803e3d6000fd5b50505050565b606060006112ea60076120d0565b905060008060005b83811015611393573373ffffffffffffffffffffffffffffffffffffffff16600b600060018461132291906138e6565b815260200190815260200160002060020160009054906101000a900473ffffffffffffffffffffffffffffffffffffffff1673ffffffffffffffffffffffffffffffffffffffff1614156113805760018361137d91906138e6565b92505b808061138b9061396b565b9150506112f2565b5060008267ffffffffffffffff8111156113b0576113af612fcd565b5b6040519080825280602002602001820160405280156113e957816020015b6113d6612b64565b8152602001906001900390816113ce5790505b50905060005b848110156115b9573373ffffffffffffffffffffffffffffffffffffffff16600b600060018461141f91906138e6565b815260200190815260200160002060020160009054906101000a900473ffffffffffffffffffffffffffffffffffffffff1673ffffffffffffffffffffffffffffffffffffffff1614156115a6576000600b600060018461148091906138e6565b81526020019081526020016000209050806040518060a0016040529081600082015481526020016001820160009054906101000a900473ffffffffffffffffffffffffffffffffffffffff1673ffffffffffffffffffffffffffffffffffffffff1673ffffffffffffffffffffffffffffffffffffffff1681526020016002820160009054906101000a900473ffffffffffffffffffffffffffffffffffffffff1673ffffffffffffffffffffffffffffffffffffffff1673ffffffffffffffffffffffffffffffffffffffff168152602001600382015481526020016004820160009054906101000a900460ff16151515158152505083858151811061158a5761158961393c565b5b60200260200101819052506001846115a291906138e6565b9350505b80806115b19061396b565b9150506113ef565b508094505050505090565b60606115cf82611cb2565b60006006600084815260200190815260200160002080546115ef9061350b565b80601f016020809104026020016040519081016040528092919081815260200182805461161b9061350b565b80156116685780601f1061163d57610100808354040283529160200191611668565b820191906000526020600020905b81548152906001019060200180831161164b57829003601f168201915b5050505050905060006116796126f8565b905060008151141561168f5781925050506116d2565b6000825111156116c45780826040516020016116ac929190613b80565b604051602081830303815290604052925050506116d2565b6116cd8461270f565b925050505b919050565b606060006116e560076120d0565b905060008060005b8381101561178e573373ffffffffffffffffffffffffffffffffffffffff16600b600060018461171d91906138e6565b815260200190815260200160002060010160009054906101000a900473ffffffffffffffffffffffffffffffffffffffff1673ffffffffffffffffffffffffffffffffffffffff16141561177b5760018361177891906138e6565b92505b80806117869061396b565b9150506116ed565b5060008267ffffffffffffffff8111156117ab576117aa612fcd565b5b6040519080825280602002602001820160405280156117e457816020015b6117d1612b64565b8152602001906001900390816117c95790505b50905060005b848110156119b4573373ffffffffffffffffffffffffffffffffffffffff16600b600060018461181a91906138e6565b815260200190815260200160002060010160009054906101000a900473ffffffffffffffffffffffffffffffffffffffff1673ffffffffffffffffffffffffffffffffffffffff1614156119a1576000600b600060018461187b91906138e6565b81526020019081526020016000209050806040518060a0016040529081600082015481526020016001820160009054906101000a900473ffffffffffffffffffffffffffffffffffffffff1673ffffffffffffffffffffffffffffffffffffffff1673ffffffffffffffffffffffffffffffffffffffff1681526020016002820160009054906101000a900473ffffffffffffffffffffffffffffffffffffffff1673ffffffffffffffffffffffffffffffffffffffff1673ffffffffffffffffffffffffffffffffffffffff168152602001600382015481526020016004820160009054906101000a900460ff1615151515815250508385815181106119855761198461393c565b5b602002602001018190525060018461199d91906138e6565b9350505b80806119ac9061396b565b9150506117ea565b508094505050505090565b3373ffffffffffffffffffffffffffffffffffffffff16600b600084815260200190815260200160002060020160009054906101000a900473ffffffffffffffffffffffffffffffffffffffff1673ffffffffffffffffffffffffffffffffffffffff1614611a63576040517f08c379a0000000000000000000000000000000000000000000000000000000008152600401611a5a90613bf0565b60405180910390fd5b6009543414611aa7576040517f08c379a0000000000000000000000000000000000000000000000000000000008152600401611a9e90613c82565b60405180910390fd5b30600b600084815260200190815260200160002060020160006101000a81548173ffffffffffffffffffffffffffffffffffffffff021916908373ffffffffffffffffffffffffffffffffffffffff16021790555033600b600084815260200190815260200160002060010160006101000a81548173ffffffffffffffffffffffffffffffffffffffff021916908373ffffffffffffffffffffffffffffffffffffffff1602179055506000600b600084815260200190815260200160002060040160006101000a81548160ff02191690831515021790555080600b600084815260200190815260200160002060030181905550611ba56008612777565b611bb0333084611e53565b5050565b6000600560008473ffffffffffffffffffffffffffffffffffffffff1673ffffffffffffffffffffffffffffffffffffffff16815260200190815260200160002060008373ffffffffffffffffffffffffffffffffffffffff1673ffffffffffffffffffffffffffffffffffffffff16815260200190815260200160002060009054906101000a900460ff16905092915050565b60007f01ffc9a7000000000000000000000000000000000000000000000000000000007bffffffffffffffffffffffffffffffffffffffffffffffffffffffff1916827bffffffffffffffffffffffffffffffffffffffffffffffffffffffff1916149050919050565b611cbb816127d3565b611cfa576040517f08c379a0000000000000000000000000000000000000000000000000000000008152600401611cf19061373f565b60405180910390fd5b50565b600033905090565b816004600083815260200190815260200160002060006101000a81548173ffffffffffffffffffffffffffffffffffffffff021916908373ffffffffffffffffffffffffffffffffffffffff160217905550808273ffffffffffffffffffffffffffffffffffffffff16611d7883610880565b73ffffffffffffffffffffffffffffffffffffffff167f8c5be1e5ebec7d5bd14f71427d1e84f3dd0314c0f7b2291e5b200ac8c7c3b92560405160405180910390a45050565b600080611dca83610880565b90508073ffffffffffffffffffffffffffffffffffffffff168473ffffffffffffffffffffffffffffffffffffffff161480611e0c5750611e0b8185611bb4565b5b80611e4a57508373ffffffffffffffffffffffffffffffffffffffff16611e3284610698565b73ffffffffffffffffffffffffffffffffffffffff16145b91505092915050565b8273ffffffffffffffffffffffffffffffffffffffff16611e7382610880565b73ffffffffffffffffffffffffffffffffffffffff1614611ec9576040517f08c379a0000000000000000000000000000000000000000000000000000000008152600401611ec090613d14565b60405180910390fd5b600073ffffffffffffffffffffffffffffffffffffffff168273ffffffffffffffffffffffffffffffffffffffff161415611f39576040517f08c379a0000000000000000000000000000000000000000000000000000000008152600401611f3090613da6565b60405180910390fd5b611f4483838361283f565b611f4f600082611d05565b6001600360008573ffffffffffffffffffffffffffffffffffffffff1673ffffffffffffffffffffffffffffffffffffffff1681526020019081526020016000206000828254611f9f91906138b2565b925050819055506001600360008473ffffffffffffffffffffffffffffffffffffffff1673ffffffffffffffffffffffffffffffffffffffff1681526020019081526020016000206000828254611ff691906138e6565b92505081905550816002600083815260200190815260200160002060006101000a81548173ffffffffffffffffffffffffffffffffffffffff021916908373ffffffffffffffffffffffffffffffffffffffff160217905550808273ffffffffffffffffffffffffffffffffffffffff168473ffffffffffffffffffffffffffffffffffffffff167fddf252ad1be2c89b69c2b068fc378daa952ba7f163c4a11628f55a4df523b3ef60405160405180910390a46120b5838383612844565b505050565b6001816000016000828254019250508190555050565b600081600001549050919050565b600073ffffffffffffffffffffffffffffffffffffffff168273ffffffffffffffffffffffffffffffffffffffff16141561214e576040517f08c379a000000000000000000000000000000000000000000000000000000000815260040161214590613e12565b60405180910390fd5b612157816127d3565b15612197576040517f08c379a000000000000000000000000000000000000000000000000000000000815260040161218e90613e7e565b60405180910390fd5b6121a36000838361283f565b6001600360008473ffffffffffffffffffffffffffffffffffffffff1673ffffffffffffffffffffffffffffffffffffffff16815260200190815260200160002060008282546121f391906138e6565b92505081905550816002600083815260200190815260200160002060006101000a81548173ffffffffffffffffffffffffffffffffffffffff021916908373ffffffffffffffffffffffffffffffffffffffff160217905550808273ffffffffffffffffffffffffffffffffffffffff16600073ffffffffffffffffffffffffffffffffffffffff167fddf252ad1be2c89b69c2b068fc378daa952ba7f163c4a11628f55a4df523b3ef60405160405180910390a46122b460008383612844565b5050565b6122c1826127d3565b612300576040517f08c379a00000000000000000000000000000000000000000000000000000000081526004016122f790613f10565b60405180910390fd5b80600660008481526020019081526020016000209080519060200190612327929190612bc1565b505050565b6000811161236f576040517f08c379a000000000000000000000000000000000000000000000000000000000815260040161236690613f7c565b60405180910390fd5b60095434146123b3576040517f08c379a00000000000000000000000000000000000000000000000000000000081526004016123aa9061400e565b60405180910390fd5b6040518060a001604052808381526020013373ffffffffffffffffffffffffffffffffffffffff1681526020013073ffffffffffffffffffffffffffffffffffffffff16815260200182815260200160001515815250600b60008481526020019081526020016000206000820151816000015560208201518160010160006101000a81548173ffffffffffffffffffffffffffffffffffffffff021916908373ffffffffffffffffffffffffffffffffffffffff16021790555060408201518160020160006101000a81548173ffffffffffffffffffffffffffffffffffffffff021916908373ffffffffffffffffffffffffffffffffffffffff1602179055506060820151816003015560808201518160040160006101000a81548160ff0219169083151502179055509050506124ec333084611e53565b817fb640004f1d14576d0c209e240cad0410e0d8c0c33a09375861fbadae2588a98d3330846000604051612523949392919061402e565b60405180910390a25050565b8173ffffffffffffffffffffffffffffffffffffffff168373ffffffffffffffffffffffffffffffffffffffff16141561259e576040517f08c379a0000000000000000000000000000000000000000000000000000000008152600401612595906140bf565b60405180910390fd5b80600560008573ffffffffffffffffffffffffffffffffffffffff1673ffffffffffffffffffffffffffffffffffffffff16815260200190815260200160002060008473ffffffffffffffffffffffffffffffffffffffff1673ffffffffffffffffffffffffffffffffffffffff16815260200190815260200160002060006101000a81548160ff0219169083151502179055508173ffffffffffffffffffffffffffffffffffffffff168373ffffffffffffffffffffffffffffffffffffffff167f17307eab39ab6107e8899845ad3d59bd9653f200f220920489ca2b5937696c318360405161268f9190612d18565b60405180910390a3505050565b6126a7848484611e53565b6126b384848484612849565b6126f2576040517f08c379a00000000000000000000000000000000000000000000000000000000081526004016126e990614151565b60405180910390fd5b50505050565b606060405180602001604052806000815250905090565b606061271a82611cb2565b60006127246126f8565b90506000815111612744576040518060200160405280600081525061276f565b8061274e846129e0565b60405160200161275f929190613b80565b6040516020818303038152906040525b915050919050565b600081600001549050600081116127c3576040517f08c379a00000000000000000000000000000000000000000000000000000000081526004016127ba906141bd565b60405180910390fd5b6001810382600001819055505050565b60008073ffffffffffffffffffffffffffffffffffffffff166002600084815260200190815260200160002060009054906101000a900473ffffffffffffffffffffffffffffffffffffffff1673ffffffffffffffffffffffffffffffffffffffff1614159050919050565b505050565b505050565b600061286a8473ffffffffffffffffffffffffffffffffffffffff16612b41565b156129d3578373ffffffffffffffffffffffffffffffffffffffff1663150b7a02612893611cfd565b8786866040518563ffffffff1660e01b81526004016128b59493929190614232565b602060405180830381600087803b1580156128cf57600080fd5b505af192505050801561290057506040513d601f19601f820116820180604052508101906128fd9190614293565b60015b612983573d8060008114612930576040519150601f19603f3d011682016040523d82523d6000602084013e612935565b606091505b5060008151141561297b576040517f08c379a000000000000000000000000000000000000000000000000000000000815260040161297290614151565b60405180910390fd5b805181602001fd5b63150b7a0260e01b7bffffffffffffffffffffffffffffffffffffffffffffffffffffffff1916817bffffffffffffffffffffffffffffffffffffffffffffffffffffffff1916149150506129d8565b600190505b949350505050565b60606000821415612a28576040518060400160405280600181526020017f30000000000000000000000000000000000000000000000000000000000000008152509050612b3c565b600082905060005b60008214612a5a578080612a439061396b565b915050600a82612a5391906142ef565b9150612a30565b60008167ffffffffffffffff811115612a7657612a75612fcd565b5b6040519080825280601f01601f191660200182016040528015612aa85781602001600182028036833780820191505090505b5090505b60008514612b3557600182612ac191906138b2565b9150600a85612ad09190614320565b6030612adc91906138e6565b60f81b818381518110612af257612af161393c565b5b60200101907effffffffffffffffffffffffffffffffffffffffffffffffffffffffffffff1916908160001a905350600a85612b2e91906142ef565b9450612aac565b8093505050505b919050565b6000808273ffffffffffffffffffffffffffffffffffffffff163b119050919050565b6040518060a0016040528060008152602001600073ffffffffffffffffffffffffffffffffffffffff168152602001600073ffffffffffffffffffffffffffffffffffffffff168152602001600081526020016000151581525090565b828054612bcd9061350b565b90600052602060002090601f016020900481019282612bef5760008555612c36565b82601f10612c0857805160ff1916838001178555612c36565b82800160010185558215612c36579182015b82811115612c35578251825591602001919060010190612c1a565b5b509050612c439190612c47565b5090565b5b80821115612c60576000816000905550600101612c48565b5090565b6000604051905090565b600080fd5b600080fd5b60007fffffffff0000000000000000000000000000000000000000000000000000000082169050919050565b612cad81612c78565b8114612cb857600080fd5b50565b600081359050612cca81612ca4565b92915050565b600060208284031215612ce657612ce5612c6e565b5b6000612cf484828501612cbb565b91505092915050565b60008115159050919050565b612d1281612cfd565b82525050565b6000602082019050612d2d6000830184612d09565b92915050565b600081519050919050565b600082825260208201905092915050565b60005b83811015612d6d578082015181840152602081019050612d52565b83811115612d7c576000848401525b50505050565b6000601f19601f8301169050919050565b6000612d9e82612d33565b612da88185612d3e565b9350612db8818560208601612d4f565b612dc181612d82565b840191505092915050565b60006020820190508181036000830152612de68184612d93565b905092915050565b6000819050919050565b612e0181612dee565b8114612e0c57600080fd5b50565b600081359050612e1e81612df8565b92915050565b600060208284031215612e3a57612e39612c6e565b5b6000612e4884828501612e0f565b91505092915050565b600073ffffffffffffffffffffffffffffffffffffffff82169050919050565b6000612e7c82612e51565b9050919050565b612e8c81612e71565b82525050565b6000602082019050612ea76000830184612e83565b92915050565b612eb681612e71565b8114612ec157600080fd5b50565b600081359050612ed381612ead565b92915050565b60008060408385031215612ef057612eef612c6e565b5b6000612efe85828601612ec4565b9250506020612f0f85828601612e0f565b9150509250929050565b612f2281612dee565b82525050565b6000602082019050612f3d6000830184612f19565b92915050565b600080600060608486031215612f5c57612f5b612c6e565b5b6000612f6a86828701612ec4565b9350506020612f7b86828701612ec4565b9250506040612f8c86828701612e0f565b9150509250925092565b600060208284031215612fac57612fab612c6e565b5b6000612fba84828501612ec4565b91505092915050565b600080fd5b600080fd5b7f4e487b7100000000000000000000000000000000000000000000000000000000600052604160045260246000fd5b61300582612d82565b810181811067ffffffffffffffff8211171561302457613023612fcd565b5b80604052505050565b6000613037612c64565b90506130438282612ffc565b919050565b600067ffffffffffffffff82111561306357613062612fcd565b5b61306c82612d82565b9050602081019050919050565b82818337600083830152505050565b600061309b61309684613048565b61302d565b9050828152602081018484840111156130b7576130b6612fc8565b5b6130c2848285613079565b509392505050565b600082601f8301126130df576130de612fc3565b5b81356130ef848260208601613088565b91505092915050565b6000806040838503121561310f5761310e612c6e565b5b600083013567ffffffffffffffff81111561312d5761312c612c73565b5b613139858286016130ca565b925050602061314a85828601612e0f565b9150509250929050565b600081519050919050565b600082825260208201905092915050565b6000819050602082019050919050565b61318981612dee565b82525050565b600061319a82612e51565b9050919050565b6131aa8161318f565b82525050565b6131b981612cfd565b82525050565b60a0820160008201516131d56000850182613180565b5060208201516131e860208501826131a1565b5060408201516131fb60408501826131a1565b50606082015161320e6060850182613180565b50608082015161322160808501826131b0565b50505050565b600061323383836131bf565b60a08301905092915050565b6000602082019050919050565b600061325782613154565b613261818561315f565b935061326c83613170565b8060005b8381101561329d5781516132848882613227565b975061328f8361323f565b925050600181019050613270565b5085935050505092915050565b600060208201905081810360008301526132c4818461324c565b905092915050565b6132d581612cfd565b81146132e057600080fd5b50565b6000813590506132f2816132cc565b92915050565b6000806040838503121561330f5761330e612c6e565b5b600061331d85828601612ec4565b925050602061332e858286016132e3565b9150509250929050565b600067ffffffffffffffff82111561335357613352612fcd565b5b61335c82612d82565b9050602081019050919050565b600061337c61337784613338565b61302d565b90508281526020810184848401111561339857613397612fc8565b5b6133a3848285613079565b509392505050565b600082601f8301126133c0576133bf612fc3565b5b81356133d0848260208601613369565b91505092915050565b600080600080608085870312156133f3576133f2612c6e565b5b600061340187828801612ec4565b945050602061341287828801612ec4565b935050604061342387828801612e0f565b925050606085013567ffffffffffffffff81111561344457613443612c73565b5b613450878288016133ab565b91505092959194509250565b6000806040838503121561347357613472612c6e565b5b600061348185828601612e0f565b925050602061349285828601612e0f565b9150509250929050565b600080604083850312156134b3576134b2612c6e565b5b60006134c185828601612ec4565b92505060206134d285828601612ec4565b9150509250929050565b7f4e487b7100000000000000000000000000000000000000000000000000000000600052602260045260246000fd5b6000600282049050600182168061352357607f821691505b60208210811415613537576135366134dc565b5b50919050565b7f4552433732313a20617070726f76616c20746f2063757272656e74206f776e6560008201527f7200000000000000000000000000000000000000000000000000000000000000602082015250565b6000613599602183612d3e565b91506135a48261353d565b604082019050919050565b600060208201905081810360008301526135c88161358c565b9050919050565b7f4552433732313a20617070726f76652063616c6c6572206973206e6f7420746f60008201527f6b656e206f776e6572206e6f7220617070726f76656420666f7220616c6c0000602082015250565b600061362b603e83612d3e565b9150613636826135cf565b604082019050919050565b6000602082019050818103600083015261365a8161361e565b9050919050565b7f4552433732313a2063616c6c6572206973206e6f7420746f6b656e206f776e6560008201527f72206e6f7220617070726f766564000000000000000000000000000000000000602082015250565b60006136bd602e83612d3e565b91506136c882613661565b604082019050919050565b600060208201905081810360008301526136ec816136b0565b9050919050565b7f4552433732313a20696e76616c696420746f6b656e2049440000000000000000600082015250565b6000613729601883612d3e565b9150613734826136f3565b602082019050919050565b600060208201905081810360008301526137588161371c565b9050919050565b7f4552433732313a2061646472657373207a65726f206973206e6f74206120766160008201527f6c6964206f776e65720000000000000000000000000000000000000000000000602082015250565b60006137bb602983612d3e565b91506137c68261375f565b604082019050919050565b600060208201905081810360008301526137ea816137ae565b9050919050565b7f4f6e6c79206f776e65722063616e206368616e6765206c697374696e6720707260008201527f6963650000000000000000000000000000000000000000000000000000000000602082015250565b600061384d602383612d3e565b9150613858826137f1565b604082019050919050565b6000602082019050818103600083015261387c81613840565b9050919050565b7f4e487b7100000000000000000000000000000000000000000000000000000000600052601160045260246000fd5b60006138bd82612dee565b91506138c883612dee565b9250828210156138db576138da613883565b5b828203905092915050565b60006138f182612dee565b91506138fc83612dee565b9250827fffffffffffffffffffffffffffffffffffffffffffffffffffffffffffffffff0382111561393157613930613883565b5b828201905092915050565b7f4e487b7100000000000000000000000000000000000000000000000000000000600052603260045260246000fd5b600061397682612dee565b91507fffffffffffffffffffffffffffffffffffffffffffffffffffffffffffffffff8214156139a9576139a8613883565b5b600182019050919050565b7f53656c6c65722063616e2063616e63656c20686973206f776e204e4654000000600082015250565b60006139ea601d83612d3e565b91506139f5826139b4565b602082019050919050565b60006020820190508181036000830152613a19816139dd565b9050919050565b7f596f752063616e2063616e63656c206f6e6c7920696620796f75206c6973746560008201527f6420697420666f722073656c6c00000000000000000000000000000000000000602082015250565b6000613a7c602d83612d3e565b9150613a8782613a20565b604082019050919050565b60006020820190508181036000830152613aab81613a6f565b9050919050565b7f506c656173652067697665207468652072657175697265207072696365206f6660008201527f204e465420000000000000000000000000000000000000000000000000000000602082015250565b6000613b0e602583612d3e565b9150613b1982613ab2565b604082019050919050565b60006020820190508181036000830152613b3d81613b01565b9050919050565b600081905092915050565b6000613b5a82612d33565b613b648185613b44565b9350613b74818560208601612d4f565b80840191505092915050565b6000613b8c8285613b4f565b9150613b988284613b4f565b91508190509392505050565b7f4f776e65722063616e20726573656c6c20686973206f776e204e465400000000600082015250565b6000613bda601c83612d3e565b9150613be582613ba4565b602082019050919050565b60006020820190508181036000830152613c0981613bcd565b9050919050565b7f506c65617365207061792061206c697374696e67207072696365206265666f7260008201527f6520726573656c6c696e67000000000000000000000000000000000000000000602082015250565b6000613c6c602b83612d3e565b9150613c7782613c10565b604082019050919050565b60006020820190508181036000830152613c9b81613c5f565b9050919050565b7f4552433732313a207472616e736665722066726f6d20696e636f72726563742060008201527f6f776e6572000000000000000000000000000000000000000000000000000000602082015250565b6000613cfe602583612d3e565b9150613d0982613ca2565b604082019050919050565b60006020820190508181036000830152613d2d81613cf1565b9050919050565b7f4552433732313a207472616e7366657220746f20746865207a65726f2061646460008201527f7265737300000000000000000000000000000000000000000000000000000000602082015250565b6000613d90602483612d3e565b9150613d9b82613d34565b604082019050919050565b60006020820190508181036000830152613dbf81613d83565b9050919050565b7f4552433732313a206d696e7420746f20746865207a65726f2061646472657373600082015250565b6000613dfc602083612d3e565b9150613e0782613dc6565b602082019050919050565b60006020820190508181036000830152613e2b81613def565b9050919050565b7f4552433732313a20746f6b656e20616c7265616479206d696e74656400000000600082015250565b6000613e68601c83612d3e565b9150613e7382613e32565b602082019050919050565b60006020820190508181036000830152613e9781613e5b565b9050919050565b7f45524337323155524953746f726167653a2055524920736574206f66206e6f6e60008201527f6578697374656e7420746f6b656e000000000000000000000000000000000000602082015250565b6000613efa602e83612d3e565b9150613f0582613e9e565b604082019050919050565b60006020820190508181036000830152613f2981613eed565b9050919050565b7f5072696365206d7573742062652067726561746572207468616e207a65726f00600082015250565b6000613f66601f83612d3e565b9150613f7182613f30565b602082019050919050565b60006020820190508181036000830152613f9581613f59565b9050919050565b7f5072696365206d75737420626520657175616c20746f206c697374696e67207060008201527f7269636500000000000000000000000000000000000000000000000000000000602082015250565b6000613ff8602483612d3e565b915061400382613f9c565b604082019050919050565b6000602082019050818103600083015261402781613feb565b9050919050565b60006080820190506140436000830187612e83565b6140506020830186612e83565b61405d6040830185612f19565b61406a6060830184612d09565b95945050505050565b7f4552433732313a20617070726f766520746f2063616c6c657200000000000000600082015250565b60006140a9601983612d3e565b91506140b482614073565b602082019050919050565b600060208201905081810360008301526140d88161409c565b9050919050565b7f4552433732313a207472616e7366657220746f206e6f6e20455243373231526560008201527f63656976657220696d706c656d656e7465720000000000000000000000000000602082015250565b600061413b603283612d3e565b9150614146826140df565b604082019050919050565b6000602082019050818103600083015261416a8161412e565b9050919050565b7f436f756e7465723a2064656372656d656e74206f766572666c6f770000000000600082015250565b60006141a7601b83612d3e565b91506141b282614171565b602082019050919050565b600060208201905081810360008301526141d68161419a565b9050919050565b600081519050919050565b600082825260208201905092915050565b6000614204826141dd565b61420e81856141e8565b935061421e818560208601612d4f565b61422781612d82565b840191505092915050565b60006080820190506142476000830187612e83565b6142546020830186612e83565b6142616040830185612f19565b818103606083015261427381846141f9565b905095945050505050565b60008151905061428d81612ca4565b92915050565b6000602082840312156142a9576142a8612c6e565b5b60006142b78482850161427e565b91505092915050565b7f4e487b7100000000000000000000000000000000000000000000000000000000600052601260045260246000fd5b60006142fa82612dee565b915061430583612dee565b925082614315576143146142c0565b5b828204905092915050565b600061432b82612dee565b915061433683612dee565b925082614346576143456142c0565b5b82820690509291505056fea2646970667358221220d2e65d2ffe653c952bfc3c54208447d62247755392cbd6457cf0ccca963cf54164736f6c63430008090033",
  "linkReferences": {},
  "deployedLinkReferences": {}
}